:020000040800F2
:1000000078040020291400080514000807140008CB
:10001000091400080B1400080D140008000000006B
:100020000000000000000000000000000F140008A5
:100030001114000800000000131400081514000833
:1000400045140008491400084D1400085114000814
:1000500055140008591400085D14000861140008C4
:1000600065140008691400086D1400087114000874
:1000700075140008791400087D1400088114000824
:1000800085140008891400088D14000891140008D4
:1000900095140008991400089D140008A114000884
:1000A000A5140008A9140008AD140008B114000834
:1000B000B5140008B9140008BD140008C1140008E4
:1000C000C5140008C9140008CD140008D114000894
:1000D000D5140008D9140008DD140008E114000844
:1000E000E5140008E9140008ED140008F1140008F4
:1000F000F5140008F9140008FD14000801150008A3
:1001000005150008091500080D150008111500084F
:1001100015150008191500081D15000821150008FF
:1001200025150008291500082D15000831150008AF
:100130003515000800000000000000003915000817
:100140003D1500084115000845150008491500082F
:100150004D150008511500085515000859150008DF
:100160005D1500086115000865150008691500088F
:100170006D15000871150008000000000000000067
:10018000751500087915000838B5040001D1012063
:1001900032BD00F045F818B900F03EF800F0BDFAA5
:1001A000FFE702206870211D206800F016F9012089
:1001B0006870002032BD03D1416C41F400414164BC
:1001C000816801F00701062903D0016841F00101AF
:1001D0000160002010BD38B5040001D1012032BDFE
:1001E00000F01EF818B900F017F800F0D9FAD8E7B7
:1001F00010B500F007F800F00AF81CBFDFF828205F
:100200009042D8E704460122206800F02ABA20680C
:10021000DFF8181088427047002129702046704787
:1002200004F13C056878704700040140000001407B
:1002300070B500F063F801D1022070BD00F06BF8DA
:1002400032B1042A17D0082A28D00C2A39D04AE023
:100250003068294600F00CF93068816941F00801E6
:1002600000F048F821F00401816131688A69286949
:1002700002438A6137E03068294600F025F930688A
:10028000816941F4006100F035F821F4806100F0EB
:1002900031F82A6941EA0221816124E03068294667
:1002A00000F042F93068C16941F0080100F01EF821
:1002B00021F00401C1613168CA6928690243CA6139
:1002C00011E03068294600F05EF93068C16941F4F8
:1002D000006100F00BF821F4806100F007F82A6952
:1002E00041EA0221C16100F010F870BDC1613068BF
:1002F000C16970478161306881697047064606F1BF
:100300003C040D46207801287047012060700021D0
:100310002170002070470120207002216170704719
:1003200038B500F04EF801D1022032BD0120207016
:1003300002226270DFF894022A6893680340936097
:100340000868020018BF10282DD0202818BF3028B8
:1003500029D0402823D0502816D0602818D07028E3
:1003600003D0B0F5005F07D021E000F025F8286841
:10037000816841F0770105E000F01EF82868816887
:1003800041F48041816012E000F012F850210BE04E
:10039000CA684968286800F040F9602104E000F06C
:1003A00007F8402100E00146286800F048F90EE017
:1003B000CA684968286821E1CB684A688968286862
:1003C00045E1054605F13C042078012870470120ED
:1003D000607000212170002032BDF0B57C4C0568B2
:1003E0007C4B7D4E7D4FDFF8F8C1A04218BFB0F1C5
:1003F000804F07D0604518BFB84203D0B04218BF45
:1004000098420DD14A6825F070051543A04218BFE7
:10041000B0F1804F17D060451CBFB842B04212D037
:1004200098421CBF6F4A90420DD06F4EB0421CBF25
:100430006E4A904207D06E4EB0421FBF6D4A904246
:100440006D4EB04203D1CA6825F4407515434A6920
:1004500025F0800515430560A0428D68C5620A68D5
:10046000826212BF98420969016301224261F0BDB4
:10047000F0B5026A564F520852000262066A44689A
:1004800085690B688A6825F0730526F002061D430E
:100490001643504BB84218BF984207D1CA6826F09D
:1004A00008061643B84226F0040601D0984205D14A
:1004B0004B698A6924F440741C4314434460856189
:1004C000496841630662F0BDF0B5026A404E22F011
:1004D00010020262B042056A436884690A6824F423
:1004E000E64444EA02248A6825F0200545EA02151C
:1004F000384A18BF904208D1CF6825F0800545EAF8
:100500000715B04225F0400501D0904206D14E6952
:100510008A6923F44063164343EA86034360846197
:10052000496881630562F0BDF0B5026A22F4807209
:100530000262056A4368C4698E680A6825F400751A
:1005400024F0730445EA06251443214E214AB042A3
:1005500018BF904208D1CF6825F4006545EA072509
:10056000B04225F4806501D0904206D14E698A6977
:1005700023F44053164343EA06134360C4614968B9
:10058000C1630562F0BD70B5026A114E22F480525B
:100590000262B042046A4268C3690D6823F4E6430C
:1005A00043EA05238D6824F4005444EA05341CBF53
:1005B000084DA84204D14D6922F4804242EA8512D6
:1005C0004260C36149680164046270BD8800FFFF36
:1005D0000000014000040140000C00400008004001
:1005E0000004004000400140004401400048014038
:1005F00000180040001C00400020004010B5036AB5
:10060000046A64086400046223F00A03846924F025
:10061000F00444EA021484612EE010B5036A23F06A
:10062000100303628369046A23F4704343EA0233CC
:1006300024F0A004836144EA0114046210BD8268BE
:1006400022F07002114341F007018160704710B53C
:10065000846824F47F442143114341EA03218160EB
:1006600010BD10B501F01F01036A01248C40A343A3
:10067000036202FA01F1036A1943016210BD00002E
:1006800018B58DB01022002109A800F08AF80822C0
:100690000021684600F085F81C22002102A800F025
:1006A00080F83B4C4FF08040206000216160A160E9
:1006B000E1602161A1612046FFF766FD08B100F00D
:1006C00003F94FF48050099009A92046FFF728FE4E
:1006D00008B100F0F9F82046FFF77DFD08B100F001
:1006E000F3F80021009101912046694600F0EEF8F0
:1006F00008B100F0E9F8602102910022039204920F
:10070000069202A92046FFF793FD08B100F0DCF83D
:10071000204600F015F80EB010BD81B00068B0F1B1
:10072000804F0BD100211B480091026842F001026A
:100730000260006800F001000090009801B070476E
:1007400010B586B004461422002101A800F029F853
:100750002168B1F1804F18D10020009002220E488C
:10076000016841F0010101600121006800F0010011
:100770000090009809480191029200210391049190
:100780000121059101A900F0E7F806B010BD0000B5
:10079000380000204038024030380240000002405B
:1007A000704710B5044610460A460146204600F040
:1007B000C1F9204610BD0000F8B500F0EFF900F0D7
:1007C0002BF800F005FAFFF75BFF394C00212046BB
:1007D000FFF70EFD374D384EFFF752FF0021204640
:1007E000FFF706FD3078354906EB8003401C5F6853
:1007F000B1FBF7F14A1E0A232A60B1FBF3F3AB60A9
:10080000307071624FF47A7000F0FEF93078082889
:10081000E2D100213170DFE780B592B030220021B3
:1008200006A8FFF7BEFF1422002101A8FFF7B9FFB9
:10083000002000904FF480332148016841F080513E
:1008400001600021006800F08050009000981D4871
:100850000091026842F4804202600122006800F4C4
:100860008040009006A80099069202214FF4800271
:100870000C910D920421A8220E910F9202210422C4
:1008800007931091119200F0D3F9022102910022F6
:1008900003920F204FF4A051019004914FF4805225
:1008A0000592052101A800F04BFB13B000BD00002C
:1008B000380000202C0000400000002000BD010591
:1008C00040380240007000407047000070B500F1F1
:1008D0003C031A78012A01D1022070BD01221A704E
:1008E00002245C7005686E68AC680A6826F07006C1
:1008F00016436E6002681148824218BFB2F1804F01
:1009000011D00F4882421CBF0E4DAA420BD00E4898
:1009100082421CBF0D4DAA4205D00D4882421CBF29
:100920000C4DAA4204D1486824F08004044394602A
:10093000012159700020187070BD000000000140B6
:100940000004004000080040000C0040000401408A
:1009500000400140001800402DE9F84F0D460026E8
:1009600069496A4A0F23044601202F68B04000EA13
:100970000708804540F0C1804FEA460C032707FA7C
:100980000CF76FEA070E6F68012F18BF022F03D014
:10099000112F18BF122F12D1A768D5F80C900EEAAC
:1009A000070709FA0CF949EA0707A760676827EA09
:1009B00000006F68C7F30017B74038436060E06815
:1009C000AF680EEA000007FA0CF73843E060B000A9
:1009D0006F68022F18BF122F12D1F70804EB870798
:1009E00000F01C09D7F820A003FA09FB2AEA0B0A39
:1009F000D5F810B00BFA09F949EA0A09C7F82090AE
:100A000027680EEA070E2F7907F0030707FA0CF79D
:100A100047EA0E0727606F68FF006ED50027009732
:100A20004FEA960C176847F48047176000F00C00F7
:100A3000176807F48047009703FA00FE009F344FC1
:100A400057F82C7027EA0E0E324FBC4208BF002721
:100A500022D0314FBC4208BF01271DD02F4FBC42CE
:100A600008BF022718D02E4FBC4208BF032713D05F
:100A70002C4FBC4208BF04270ED02B4FBC4208BFEE
:100A8000052709D0294FBC4208BF062704D0284FAC
:100A9000BC420CBF0727082707FA00F01C4F40EAAA
:100AA0000E0047F82C006FEA08000F6800EA070CF8
:100AB0006F68FF0348BF48EA0C0CC1F800C04F68DC
:100AC00000EA070C6F68BF0348BF48EA0C0CC1F886
:100AD00004C08F6800EA070C6F68FF0248BF48EA4D
:100AE0000C0CC1F808C0CF6800EA070C68688002E7
:100AF00048BF48EA0C0CC1F80CC0761C0F2E7FF6DC
:100B000033AFBDE8F18F0000003C014044380240A3
:100B10000838014000000240000402400008024082
:100B2000000C024000100240001402400018024075
:100B3000001C024062F30F2262F31F42401810F0C3
:100B4000030308D0C91A1FD3DB0748BF00F8012DE3
:100B500028BF20F8022D130030B414461546103972
:100B600028BF20E93C00FAD8490728BF20E90C003B
:100B700048BF40F8042D890028BF20F8022D48BF47
:100B800000F8012D30BC7047C91818BF00F8012DBE
:100B9000CB0728BF00F8012D7047000080B50B4837
:100BA000016841F400710160026842F480620260F1
:100BB000016841F480710160032000F08EFA00208A
:100BC00000F0D4FA00F0F2FA002002BD003C02402E
:100BD00081B0002000900B48016841F08001016065
:100BE000026802F0800200920022009900920368DD
:100BF00043F001030360006800F0010000900098DA
:100C000001B070473038024038B5044600F0EAFAC7
:100C100014F1010F054602D004480178641800F071
:100C2000E1FA401BA042FAD331BD00BF28000020EA
:100C30002DE9F843040016D02078DFF8F462C107EC
:100C400013D5B06800F00C00042807D0B06800F09D
:100C50000C0008283DD1706841023AD53068810304
:100C600003D56068002800F05E812078B14F8107CD
:100C700019D5B06810F00C0F07D0B06800F00C0068
:100C800008285BD17068410258D43068810703D5C9
:100C9000E068012840F047813168206921F0F801BF
:100CA00041EAC00131602178080779D56069A2491D
:100CB000002868D001220A6000F094FA0546706F9F
:100CC00081076DD400F08EFA401B0228F7D903206B
:100CD0002CE16068B0F5803F04D1306840F480308A
:100CE000306011E0B0F5A02F306806D140F48020CC
:100CF0003060316841F4803105E020F480303060AC
:100D0000316821F480213160606858B100F06AFADE
:100D1000054630688103A8D400F064FA401B6528BA
:100D2000F7D3D4E700F05EFA0546306881039CD51E
:100D300000F058FA401B6528F7D3C8E7E068A8B16F
:100D40000121396000F04EFA05463068810705D46C
:100D500000F048FA401B0228F7D9B8E7306821694B
:100D600020F0F80040EAC10030609CE7386000F0F5
:100D700039FA05463168880795D500F033FA401BEB
:100D80000228F7D9A3E7086000F02CFA0546706F37
:100D9000810705D500F026FA401B0228F7D996E70F
:100DA000207841075FD5306C0025C1000AD400953A
:100DB0000125316C41F080513164306C00F080507D
:100DC00000900098DFF87481D8F80000C10513D4B2
:100DD000D8F8000040F48070C8F8000000F002FA73
:100DE0008146D8F80000C10506D400F0FBF9A0EB5D
:100DF00009000228F5D96AE7A068012805D005286E
:100E0000306F06D140F004003067306F40F00100D1
:100E100005E0400840003067306F20F00400306784
:100E200041F28938A06860B100F0DCF98146306F8A
:100E3000810713D400F0D6F9A0EB09004045F6D3A2
:100E400045E700F0CFF98146306F810706D500F005
:100E5000C9F9A0EB09004045F6D338E71DB1306C65
:100E600020F080503064A06900285ED0B16801F0A5
:100E70000C0108293AD002282AD10020386600F057
:100E8000B1F905463068810105D500F0ABF9401B8A
:100E90000228F7D91BE7E069216A626A0843A16A60
:100EA000490840EA8210491E40EA0140E16A40EAEE
:100EB000016070600120386600F094F904463068E3
:100EC000810132D400F08EF9001B0228F7D9FEE62A
:100ED0000020386600F086F904463068810124D588
:100EE00000F080F9001B0228F7D9F0E601281AD09B
:100EF0007068E26900F48001914202BF00F03F0196
:100F0000226A91420FD147F6C071626A0140914254
:100F100002BF00F44031A26A914202BF00F070604B
:100F2000E16A884201D0012000E00020BDE8F283A0
:100F30000038024000004742800E474200700040E7
:100F40002DE9F04104000F4654D0404E306800F0C7
:100F50000F00B84202D200F073F84BD120683C4D2C
:100F6000810712D5400703D5A96841F4E051A96073
:100F70002078010703D5A86840F46040A860A968FC
:100F8000A06821F0F0010143A9602178C80729D5A4
:100F90006068012802D129688A0305E0022818BF89
:100FA000032803D129688A0103D423E029688A072A
:100FB00020D5A968890840EA8100A86000F012F9EC
:100FC0008046A868616800F00C00B0EB810F09D082
:100FD00000F008F9A0EB080041F289318842F0D313
:100FE00003202BE0306800F00F00874204D200F0AD
:100FF00027F801D0012021E02078410705D5AA6813
:10100000E06822F4E0520243AA602178080706D57E
:10101000A968206921F4604141EAC001A96000F09B
:101020001FF8AA680B490C4BC2F30312895CC84035
:1010300018600A48006800F099F80020BDE8F081C7
:101040003770316801F00F01B9427047003C02402F
:101050000038024050130008340000203000002007
:1010600030B5144C606800F00C00042802D0082849
:1010700002D01DE0104830BD2268206800234102E4
:1010800002F03F0204D525680B49C5F3881003E040
:1010900020680A49C0F38810A1FB000100F0A8F8FD
:1010A0002168C1F30141491C4900B0FBF1F030BD9A
:1010B000024830BD0438024000127A000024F400D7
:1010C0000901020002D4244881547047234B02F0E6
:1010D0000F021A4402F8041C7047214B19684FF69E
:1010E000FF020002114000F4E06008431D4908437C
:1010F0001860704770B51A4B1C68C4F302230124B2
:10110000C3F10705052D2EBF0F2504FA05F56D1E49
:101110001E1D072E34BF0023DB1E2940994004FA10
:1011200003F3BDE870405B1E1A401143C8E710B5D9
:10113000401EB0F1807F01D3012010BD0A4C6060D9
:101140000F214FF0FF30FFF7BBFF0021A160072008
:101150002060002010BD000000E400E018ED00E079
:101160000CED00E00000FA0510E000E038B50D4D90
:101170000D4B2A7804464FF47A711868B1FBF2F2ED
:10118000B0FBF2F0FFF7D3FF50B9102C08D20022C9
:1011900021464FF0FF30FFF7ADFFAC60002032BDBD
:1011A000012032BD280000203400002081B0002042
:1011B000009000220A48416841F480414160416842
:1011C00001F48041009100990092036843F080533C
:1011D0000360006800F080500090009801B07047F4
:1011E0004038024001484068704700BF2800002096
:1011F000D3BBD9B1B2F5803F5BD2022A1ED98C464F
:10120000B1FBF2F102FB11C31B0443EA1043B3FB31
:10121000F2FC02FB1C3380B240EA0343B3FBF2F062
:1012200002FB103240EA0C4000237047022A05D925
:101230008446B0FBF2F002FB10C270474AB105D100
:1012400000F0010249085FEA3000704700220023E5
:10125000704700F051B80B000200002100207047D9
:10126000F7D3002200237047904271EB030CF2D3B6
:1012700070B5B1FA81F4B3FA83F52C1BA340C4F125
:10128000200532FA05F63343A2405FF00046E640FF
:1012900002E05B085FEA3202841A71EB030524BFA7
:1012A000204629467641F4D302000B00300000218D
:1012B00070BD70B5B1FA81F4B2FA82F5C4F12004C0
:1012C0006419B4F12006DAD3B2405FF00044F44070
:1012D000002502E052085FEA3303C61A71EB020EE2
:1012E00024BF3046714664416D41F3D302000B00C8
:1012F0002000290070BD0000704730B50168846887
:101300004218416802EB5103C90703D54C4401E080
:10131000491C05D19A420AD012F9011B12F8015B4F
:10132000002904F8015BF3D4491EF7D5F2E70C302D
:1013300030BD00000448054A016841F470010160B5
:101340004FF000601060704788ED00E008ED00E0AD
:101350000000000000000000010203040607080965
:1013600010B5074979441831064C7C44163404E022
:101370000A68081D114488470146A142F8D110BDF2
:101380002C000000380000004EF68851CEF200011B
:10139000086840F470000860BFF34F8FBFF36F8F91
:1013A0004FF00070E1EE100A704700004FFFFFFFA2
:1013B000CC010000600000000000002000F00DF8EB
:1013C000002801D0FFF7CCFFAFF300800020AFF37F
:1013D0000080FFF7F1F900F002F80120704700F0FB
:1013E00001B800000746384600F002F8FBE70000AD
:1013F00080B5AFF30080024A11001820ABBEFBE7B6
:10140000260002007047FEE7FEE7FEE7FEE77047B2
:101410007047704700F000B80248416802788A18A7
:10142000426070472800002001488047014800477B
:101430003513000839140008AFF30080FFF7A4FF4C
:10144000FFF7BCFFFFF7FEBFFFF7FEBFFFF7FEBFD2
:10145000FFF7FEBFFFF7FEBFFFF7FEBFFFF7FEBFC0
:10146000FFF7FEBFFFF7FEBFFFF7FEBFFFF7FEBFB0
:10147000FFF7FEBFFFF7FEBFFFF7FEBFFFF7FEBFA0
:10148000FFF7FEBFFFF7FEBFFFF7FEBFFFF7FEBF90
:10149000FFF7FEBFFFF7FEBFFFF7FEBFFFF7FEBF80
:1014A000FFF7FEBFFFF7FEBFFFF7FEBFFFF7FEBF70
:1014B000FFF7FEBFFFF7FEBFFFF7FEBFFFF7FEBF60
:1014C000FFF7FEBFFFF7FEBFFFF7FEBFFFF7FEBF50
:1014D000FFF7FEBFFFF7FEBFFFF7FEBFFFF7FEBF40
:1014E000FFF7FEBFFFF7FEBFFFF7FEBFFFF7FEBF30
:1014F000FFF7FEBFFFF7FEBFFFF7FEBFFFF7FEBF20
:10150000FFF7FEBFFFF7FEBFFFF7FEBFFFF7FEBF0F
:10151000FFF7FEBFFFF7FEBFFFF7FEBFFFF7FEBFFF
:10152000FFF7FEBFFFF7FEBFFFF7FEBFFFF7FEBFEF
:10153000FFF7FEBFFFF7FEBFFFF7FEBFFFF7FEBFDF
:10154000FFF7FEBFFFF7FEBFFFF7FEBFFFF7FEBFCF
:10155000FFF7FEBFFFF7FEBFFFF7FEBFFFF7FEBFBF
:10156000FFF7FEBFFFF7FEBFFFF7FEBFFFF7FEBFAF
:10157000FFF7FEBFFFF7FEBFFFF7FEBFFC001D0B2E
:101580000200004B02000093020000BA0200000FAC
:1015900003000070030000DB0300001604FA0000E3
:0C15A00001F9000010FC000124F4BF0061
:0400000508001439A2
:00000001FF
