S01900004558335F496E746572727570745F464E442E73726563D8
S113000045C0000060C000005EC000005CC000008D
S11300105AC0000058C0000056C0000054C0000080
S11300208AC0000050C000004EC000004CC0000058
S11300304AC0000048C0000046C0000044C00000A0
S113004042C0000040C000003EC000003CC00000B0
S11300503AC0000038C0000036C0000034C00000C0
S113006032C0000030C000002EC000002CC00000D0
S11300702AC0000028C0000026C0000024C00000E0
S113008022C0000020C000001EC0000011241FBEBA
S1130090CFEFD0E1DEBFCDBF11E0A0E0B1E0EAE6F2
S11300A0F1E000E00BBF02C007900D92A231B1074E
S11300B0D9F721E0A2E1B1E001C01D92A331B2075A
S11300C0E1F702D050C09CCFCF93DF93CDB7DEB71A
S11300D062970FB6F894DEBF0FBECDBF82E1E0E0B9
S11300E0F1E0DE01119601900D928A95E1F78FEF10
S11300F08ABB12B880EC8ABF80E889BF88BF789435
S113010080E0E1E0F0E0EC0FFD1FE80FF11D9081CD
S11301109BBB90911201911104C08F5F823108F052
S113012080E02FEF3FE794E0215030409040E1F72A
S113013000C00000E6CF1F920F920FB60F92112459
S11301408F93F89480911201811104C081E080930F
S1130150120102C01092120178948F910F900FBE79
S10D01600F901F901895F894FFCF3C
S113016A3F065B4F666D7C077F67777C395E7971E2
S105017A0880F7
S9030000FC
