:020000040800F2
:10000000500400209D100008791000087B100008A3
:100010007D1000087F10000881100008000000001B
:100020000000000000000000000000008310000835
:1000300085100008000000008710000889100008E3
:10004000C1100008C5100008C9100008CD10000834
:10005000D1100008D5100008D9100008DD100008E4
:10006000E1100008E5100008E9100008ED10000894
:10007000F1100008F5100008F9100008FD10000844
:100080000111000805110008091100080D110008F0
:100090001111000815110008191100081D110008A0
:1000A0002111000825110008291100082D11000850
:1000B0003111000835110008391100083D11000800
:1000C0004111000845110008491100084D110008B0
:1000D0005111000855110008591100085D11000860
:1000E0006111000865110008691100086D11000810
:1000F0007111000875110008791100087D110008C0
:100100008111000885110008891100088D1100086F
:100110009111000895110008991100089D1100081F
:10012000A1110008A5110008A9110008AD110008CF
:10013000B11100080000000000000000B511000827
:10014000B9110008BD110008C1110008C51100084F
:10015000C9110008CD110008D1110008D5110008FF
:10016000D9110008DD110008E1110008E5110008AF
:10017000E9110008ED110008000000000000000077
:10018000F1110008F51100082DE9F843040016D01C
:100190002078DFF8F462C10713D5B06800F00C00D6
:1001A000042807D0B06800F00C0008283DD1706822
:1001B00041023AD53068810303D56068002800F019
:1001C0005E812078B14F810719D5B06810F00C0F0F
:1001D00007D0B06800F00C0008285BD170684102BD
:1001E00058D43068810703D5E068012840F0478182
:1001F0003168206921F0F80141EAC00131602178BD
:10020000080779D56069A249002868D001220A60F0
:1002100000F042F90546706F81076DD400F03CF99B
:10022000401B0228F7D903202CE16068B0F5803F1D
:1002300004D1306840F48030306011E0B0F5A02F78
:10024000306806D140F480203060316841F480315C
:1002500005E020F480303060316821F48021316085
:10026000606858B100F018F9054630688103A8D4D9
:1002700000F012F9401B6528F7D3D4E700F00CF921
:100280000546306881039CD500F006F9401B6528BF
:10029000F7D3C8E7E068A8B10121396000F0FCF8A5
:1002A00005463068810705D400F0F6F8401B0228A7
:1002B000F7D9B8E73068216920F0F80040EAC100BA
:1002C00030609CE7386000F0E7F805463168880741
:1002D00095D500F0E1F8401B0228F7D9A3E70860A4
:1002E00000F0DAF80546706F810705D500F0D4F804
:1002F000401B0228F7D996E7207841075FD5306C7C
:100300000025C1000AD400950125316C41F08051CF
:100310003164306C00F0805000900098DFF87481F8
:10032000D8F80000C10513D4D8F8000040F480705C
:10033000C8F8000000F0B0F88146D8F80000C10508
:1003400006D400F0A9F8A0EB09000228F5D96AE765
:10035000A068012805D00528306F06D140F00400C0
:100360003067306F40F0010005E040084000306722
:10037000306F20F00400306741F28938A06860B126
:1003800000F08AF88146306F810713D400F084F8BA
:10039000A0EB09004045F6D345E700F07DF8814623
:1003A000306F810706D500F077F8A0EB09004045D3
:1003B000F6D338E71DB1306C20F080503064A0696E
:1003C00000285ED0B16801F00C0108293AD002285B
:1003D0002AD10020386600F05FF8054630688101B8
:1003E00005D500F059F8401B0228F7D91BE7E06952
:1003F000216A626A0843A16A490840EA8210491EDC
:1004000040EA0140E16A40EA01607060012038661C
:1004100000F042F804463068810132D400F03CF824
:10042000001B0228F7D9FEE60020386600F034F8F9
:1004300004463068810124D500F02EF8001B022804
:10044000F7D9F0E601281AD07068E26900F480015B
:10045000914202BF00F03F01226A91420FD147F65C
:10046000C071626A0140914202BF00F44031A26A49
:10047000914202BF00F07060E16A884201D0012021
:1004800000E00020BDE8F28300380240000047424F
:10049000800E47420070004001484068704700BF2E
:1004A0000000002038B5040001D1012032BD00F069
:1004B00021F808B900F022F800F012F800F023F853
:1004C000FFE7416100F001F832BD2068C16841F4E6
:1004D0000051C1600020686020216970A9707047D8
:1004E000242068702068C16821F40051C160204652
:1004F00000F09EB804F13805687870470021297033
:10050000204600F01EB92068016921F49041016184
:100510002068416921F02A0170472DE9F84305461A
:1005200005F138070C46787820281646984646D1BB
:10053000002C14BF002E012042D0387801283ED074
:10054000012139700020786021227A70FFF7A4FF22
:100550008146AE84EE840020387003E02A6814F8E7
:10056000011B5160E88CE0B1E88C411EE9844B46E8
:10057000A868CDF80080B0F5805F0DD100F022F8BA
:10058000B8B920882968C0F30800486028690028A5
:1005900014BF641CA41CE5E700F014F80028DDD0AB
:1005A00007E0CDF800804B460022402100F00CF817
:1005B00008B1032004E020207870002000E0022031
:1005C000BDE8F283002280212846FFE72DE9F041B3
:1005D000069C05460E4690461F4628680168314035
:1005E000B1420CBF01200020404517D114F1010F8A
:1005F000F3D024B1FFF750FFC01B8442EDD228682E
:10060000C16821F4D07100F00CF805F13800202108
:100610004170817000210170032000E00020BDE8DE
:10062000F081C1602868416949084900416170470B
:10063000D0B50646642732681169F06821F440514C
:10064000014311611924D3682C48B1680340306913
:100650000B4371690343F0690B430343D360516952
:10066000B06921F4407101435161F369244825497F
:10067000B3F5004F1FD18A4218BF824202D100F069
:1006800029F901E000F01EF90246A4FB020172689C
:10069000D30F520000F066F900F036F8FF00323751
:1006A0006420B7FBF0F0420002F4F87202EB011292
:1006B00000F007001DE08A4218BF824202D100F01C
:1006C00009F901E000F0FEF80246A4FB020172689D
:1006D000930F920000F046F900F016F83F01323710
:1006E0006420B7FBF0F000F0F00202EB011200F022
:1006F0000F00316880188860D0BD0000F369FFFFEB
:1007000000140140001001406421B0FBF1F107FB2F
:100710001107704780B52448244901604FF4E13245
:1007200000230C2142608360C360036141618361E7
:10073000C361FFF7B7FE18B1BDE8014000F00ABA87
:1007400001BD10B586B004461422002101A800F0B6
:100750000DFA21681548814224D1002214480092E4
:10076000416941F010014161416901F010010091BE
:10077000009900924FF4C061036843F001030360E5
:100780000222006800F001000090009809480191E1
:10079000029200210391032207210591049201A9ED
:1007A00000F0EEF906B010BD10000020001001406E
:1007B00030380240000002402DE9F04104000F46AD
:1007C00054D0494E306800F00F00B84202D200F019
:1007D00073F84BD12068454D810712D5400703D5EA
:1007E000A96841F4E051A9602078010703D5A86801
:1007F00040F46040A860A968A06821F0F0010143BE
:10080000A9602178C80729D56068012802D1296824
:100810008A0305E0022818BF032803D129688A014A
:1008200003D423E029688A0720D5A968890840EA0B
:100830008100A860FFF730FE8046A868616800F07C
:100840000C00B0EB810F09D0FFF726FEA0EB0800EB
:1008500041F289318842F0D303202BE0306800F068
:100860000F00874204D200F027F801D0012021E0D8
:100870002078410705D5AA68E06822F4E0520243D7
:10088000AA602178080706D5A968206921F460418B
:1008900041EAC001A96000F035F8AA681449154B77
:1008A000C2F30312895CC84018601348006800F066
:1008B00055FA0020BDE8F0813770316801F00F0172
:1008C000B94270470B480D4A006813680C49C3F3DE
:1008D000822206E00748094A006813680849C3F302
:1008E0004232895CC8407047003C024000380240F8
:1008F000C40F00080C000020080000200838024047
:10090000B810000830B5144C606800F00C000428E2
:1009100002D0082802D01DE0104830BD22682068AF
:100920000023410202F03F0204D525680B49C5F3BC
:10093000881003E020680A49C0F38810A1FB000179
:1009400000F010F82168C1F30141491C4900B0FBD7
:10095000F1F030BD024830BD0438024000127A0088
:100960000024F400D3BBD9B1B2F5803F5BD2022A98
:100970001ED98C46B1FBF2F102FB11C31B0443EA02
:100980001043B3FBF2FC02FB1C3380B240EA03438A
:10099000B3FBF2F002FB103240EA0C400023704738
:1009A000022A05D98446B0FBF2F002FB10C2704760
:1009B0004AB105D100F0010249085FEA30007047F2
:1009C00000220023704700F0E9B90B00020000216B
:1009D00000207047F7D3002200237047904271EB4C
:1009E000030CF2D370B5B1FA81F4B3FA83F52C1B82
:1009F000A340C4F1200532FA05F63343A2405FF06C
:100A00000046E64002E05B085FEA3202841A71EBBE
:100A1000030524BF204629467641F4D302000B008B
:100A20003000002170BD70B5B1FA81F4B2FA82F5E0
:100A3000C4F120046419B4F12006DAD3B2405FF0A7
:100A40000044F440002502E052085FEA3303C61A6E
:100A500071EB020E24BF3046714664416D41F3D301
:100A600002000B002000290070BD000070B586B0A8
:100A700000F096F900F01CF800F0ACF9FFF74AFE20
:100A80000DF1040034A1304D122200F0BFF9002412
:100A900001AE08E08DF800000A23012269462846CD
:100AA000FFF73BFD641CE0B2305C0028F2D1FEE7AA
:100AB00080B592B03022002106A800F057F8142229
:100AC000002101A800F052F8002000904FF480337C
:100AD0001E48016841F0805101600021006800F06B
:100AE0008050009000981A480091026842F48042B9
:100AF00002600122006800F48040009006A800997E
:100B0000069202214FF480020C910D920421A8223A
:100B10000E910F9202210422079310911192FFF778
:100B200033FB02210291002203920F204FF4A051C7
:100B3000019004914FF480520592052101A8FFF71E
:100B40003BFE13B000BD0000100000204038024002
:100B5000007000407047000048656C6C6F212057A2
:100B60006F726C642121200D0A00000010B504464C
:100B700010460A460146204600F054F9204610BDB2
:100B80002DE9F84F0D46002669496A4A0F230446AD
:100B900001202F68B04000EA0708804540F0C1807E
:100BA0004FEA460C032707FA0CF76FEA070E6F6847
:100BB000012F18BF022F03D0112F18BF122F12D1EF
:100BC000A768D5F80C900EEA070709FA0CF949EA6C
:100BD0000707A760676827EA00006F68C7F3001778
:100BE000B74038436060E068AF680EEA000007FA7B
:100BF0000CF73843E060B0006F68022F18BF122F67
:100C000012D1F70804EB870700F01C09D7F820A0E1
:100C100003FA09FB2AEA0B0AD5F810B00BFA09F916
:100C200049EA0A09C7F8209027680EEA070E2F79CB
:100C300007F0030707FA0CF747EA0E0727606F680B
:100C4000FF006ED5002700974FEA960C176847F40F
:100C50008047176000F00C00176807F48047009782
:100C600003FA00FE009F344F57F82C7027EA0E0E4F
:100C7000324FBC4208BF002722D0314FBC4208BFD0
:100C800001271DD02F4FBC4208BF022718D02E4F7E
:100C9000BC4208BF032713D02C4FBC4208BF042717
:100CA0000ED02B4FBC4208BF052709D0294FBC42AC
:100CB00008BF062704D0284FBC420CBF07270827CF
:100CC00007FA00F01C4F40EA0E0047F82C006FEACC
:100CD00008000F6800EA070C6F68FF0348BF48EA86
:100CE0000C0CC1F800C04F6800EA070C6F68BF0326
:100CF00048BF48EA0C0CC1F804C08F6800EA070C32
:100D00006F68FF0248BF48EA0C0CC1F808C0CF6802
:100D100000EA070C6868800248BF48EA0C0CC1F87A
:100D20000CC0761C0F2E7FF633AFBDE8F18F0000AC
:100D3000003C0140443802400838014000000240B5
:100D40000004024000080240000C02400010024073
:100D50000014024000180240001C024038B50D4D3E
:100D60000D4B2A7804464FF47A711868B1FBF2F201
:100D7000B0FBF2F000F0C1F850B9102C08D20022FC
:100D800021464FF0FF3000F09BF8AC60002032BDF0
:100D9000012032BD000000200C0000207047000040
:100DA00080B50B48016841F400710160026842F4AB
:100DB00080620260016841F480710160032000F0EC
:100DC00072F80020FFF7CAFF00F0B6F8002002BD5D
:100DD000003C024081B0002000900B48016841F0C7
:100DE00080010160026802F08002009200220099F6
:100DF0000092036843F001030360006800F0010003
:100E00000090009801B07047303802404AB10000AD
:100E100011F8013B521E00F8013B1CBF11F8013BC9
:100E2000F8E7704762F30F2262F31F42401810F098
:100E3000030308D0C91A1FD3DB0748BF00F8012DF0
:100E400028BF20F8022D130030B41446154610397F
:100E500028BF20E93C00FAD8490728BF20E90C0048
:100E600048BF40F8042D890028BF20F8022D48BF54
:100E700000F8012D30BC7047C91818BF00F8012DCB
:100E8000CB0728BF00F8012D7047000009010200C0
:100E900002D4244881547047234B02F00F021A44B5
:100EA00002F8041C7047214B19684FF6FF0200023C
:100EB000114000F4E06008431D4908431860704782
:100EC00070B51A4B1C68C4F302230124C3F1070553
:100ED000052D2EBF0F2504FA05F56D1E1E1D072ECC
:100EE00034BF0023DB1E2940994004FA03F3BDE818
:100EF00070405B1E1A401143C8E710B5401EB0F1A8
:100F0000807F01D3012010BD0A4C60600F214FF09B
:100F1000FF30FFF7BBFF0021A16007202060002009
:100F200010BD000000E400E018ED00E00CED00E072
:100F30000000FA0510E000E081B0002000900022DF
:100F40000A48416841F480414160416801F48041B0
:100F5000009100990092036843F080530360006899
:100F600000F080500090009801B070474038024077
:100F700030B5016884684218416802EB5103C90723
:100F800003D54C4401E0491C05D19A420AD012F91C
:100F9000011B12F8015B002904F8015BF3D4491E20
:100FA000F7D5F2E70C3030BD0448054A016841F43A
:100FB000700101604FF000601060704788ED00E044
:100FC00008ED00E000000000000000000102030442
:100FD0000607080910B5074979441831064C7C44C6
:100FE000163404E00A68081D114488470146A142EE
:100FF000F8D110BD2C000000380000004EF68851DA
:10100000CEF20001086840F470000860BFF34F8F13
:10101000BFF36F8F4FF00070E1EE100A70470000D1
:1010200051FFFFFFD40100001A0000000000002063
:1010300000F00DF8002801D0FFF7CCFFAFF30080DF
:101040000020AFF30080FFF711FD00F002F801204F
:10105000704700F001B800000746384600F002F87B
:10106000FBE7000080B5AFF30080024A11001820B2
:10107000ABBEFBE7260002007047FEE7FEE7FEE797
:10108000FEE770477047704700F000B802484168BB
:1010900002788A18426070470000002001488047AB
:1010A00001480047A90F0008AD100008AFF3008009
:1010B000FFF7A4FFFFF7BCFF0000000001020304DC
:1010C000FFF7FEBFFFF7FEBFFFF7FEBFFFF7FEBF54
:1010D000FFF7FEBFFFF7FEBFFFF7FEBFFFF7FEBF44
:1010E000FFF7FEBFFFF7FEBFFFF7FEBFFFF7FEBF34
:1010F000FFF7FEBFFFF7FEBFFFF7FEBFFFF7FEBF24
:10110000FFF7FEBFFFF7FEBFFFF7FEBFFFF7FEBF13
:10111000FFF7FEBFFFF7FEBFFFF7FEBFFFF7FEBF03
:10112000FFF7FEBFFFF7FEBFFFF7FEBFFFF7FEBFF3
:10113000FFF7FEBFFFF7FEBFFFF7FEBFFFF7FEBFE3
:10114000FFF7FEBFFFF7FEBFFFF7FEBFFFF7FEBFD3
:10115000FFF7FEBFFFF7FEBFFFF7FEBFFFF7FEBFC3
:10116000FFF7FEBFFFF7FEBFFFF7FEBFFFF7FEBFB3
:10117000FFF7FEBFFFF7FEBFFFF7FEBFFFF7FEBFA3
:10118000FFF7FEBFFFF7FEBFFFF7FEBFFFF7FEBF93
:10119000FFF7FEBFFFF7FEBFFFF7FEBFFFF7FEBF83
:1011A000FFF7FEBFFFF7FEBFFFF7FEBFFFF7FEBF73
:1011B000FFF7FEBFFFF7FEBFFFF7FEBFFFF7FEBF63
:1011C000FFF7FEBFFFF7FEBFFFF7FEBFFFF7FEBF53
:1011D000FFF7FEBFFFF7FEBFFFF7FEBFFFF7FEBF43
:1011E000FFF7FEBFFFF7FEBFFFF7FEBFFFF7FEBF33
:1011F000FFF7FEBFFFF7FEBF0001F9000010FC0083
:051200000124F4BF0011
:04000005080010AD32
:00000001FF
