:1000000045C0000053C0000051C000004FC00000B8
:100010004DC000004BC0000049C0000047C00000B8
:1000200045C0000043C0000041C000003FC00000C8
:100030003DC000003BC000004BC0000037C00000C6
:1000400035C0000033C0000031C000002FC00000E8
:100050002DC000002BC0000029C0000027C00000F8
:1000600025C0000023C0000021C000001FC0000008
:100070001DC000001BC0000019C0000017C0000018
:1000800015C0000013C0000011C0000011241FBEE5
:10009000CFEFD0E1DEBFCDBF21E0A0E0B1E001C0F5
:1000A0001D92A230B207E1F702D034C0A9CF8FEF82
:1000B00084BB1FBC81E08EBD1DBC1CBC84E087BF1F
:1000C00086B7846086BF78948091010185BBFCCFA0
:1000D0001F920F920FB60F9211248F93F894809174
:1000E00000018F5F80930001803769F480910101E6
:1000F0008F5F80930101809101018F3F11F4109275
:1001000001011092000178948F910F900FBE0F9013
:080110001F901895F894FFCF31
:00000001FF
