S01F00004558325F496E746572727570745F4C45445F53686966742E7372656379
S113000045C0000085C0000056C0000054C0000078
S113001052C000008EC000004EC000004CC0000062
S11300204AC0000048C0000046C0000044C00000B0
S113003042C0000040C000003EC000003CC00000C0
S11300403AC0000038C0000036C0000034C00000D0
S113005032C0000030C000002EC000002CC00000E0
S11300602AC0000028C0000026C0000024C00000F0
S113007022C0000020C000001EC000001CC0000000
S11300801AC0000018C0000016C0000011241FBED2
S1130090CFEFD0E1DEBFCDBF11E0A0E0B1E0E8E5F5
S11300A0F1E000E00BBF02C007900D92A230B1074F
S11300B0D9F702D04FC0A4CF8FEF8ABB11BA12B8C0
S11300C082E080936A0083E08ABF81E189BF88BFB0
S11300D0789481E08BBB90910001913021F48038B9
S11300E051F0880F0BC090910001923039F48130A7
S11300F021F0869503C081E001C080E82FEF3FE343
S113010092E0215030409040E1F700C00000E2CF7F
S11301101F920F920FB60F9211248F93F89481E0DF
S11301208093000178948F910F900FBE0F901F90D1
S113013018951F920F920FB60F9211248F93F89473
S113014082E08093000178948F910F900FBE0F90FE
S10B01501F901895F894FFCFED
S10501580100A0
S9030000FC
